:1000000002093D9080C6EEF0A3EFF0A3EDF09080E2
:10001000C6E0FEA3E0FF7B017A8079C89080D5E43A
:08002000F0A304F012072F22E7
:10002B00020BB6E49080C5F09080C5E0C394044009
:10003B00030200C2E025E024B7F582E43480F583A7
:10004B00E4F0A3F09080C5E0FF120ACCE4FDFC12B3
:10005B000B09E49080C6F09080C6E0C3940F504E1D
:10006B00E0FF9080C5E075F00FA42400F582E43426
:10007B0080F583E5822FF582E43583F583E4F090F8
:10008B0080C5E075F01EA4243CF582E43480F58332
:10009B00C083C0829080C6E0D082D08375F00212FC
:1000AB0002A1E4F0A3F09080C6E004F080A9908058
:1000BB00C5E004F0020033229080C8EFF09080B6C8
:1000CB00E0B4050C9080C97420F0A3740AF0800A88
:1000DB009080C97420F0A37414F09080C8E0FFA343
:0C00EB00E0FCA3E0FDEF2DFFE43CFE2252
:1000F800FFFF4457494E5435020984E709F608DFE3
:10010800FA8046E709F208DFFA803E88828C83E7A6
:1001180009F0A3DFFA8032E309F608DFFA8078E312
:1001280009F208DFFA807088828C83E309F0A3DF84
:10013800FA806489828A83E0A3F608DFFA80588906
:10014800828A83E0A3F208DFFA804C80D280FA80AA
:10015800C680D4806980F28033801080A680EA80CF
:100168009A80A880DA80E280CA803389828A83EC08
:10017800FAE493A3C8C582C8CCC583CCF0A3C8C58C
:1001880082C8CCC583CCDFE9DEE7800D89828A830B
:10019800E493A3F608DFF9ECFAA9F0EDFB228982D3
:1001A8008A83ECFAE0A3C8C582C8CCC583CCF0A387
:1001B800C8C582C8CCC583CCDFEADEE880DB89828B
:1001C8008A83E493A3F208DFF980CC88F0EF60011A
:1001D8000E4E60C388F0ED2402B4040050B9F582D5
:1001E800EB2402B4040050AF23234582239001532B
:1001F80073BB010689828A83E0225002E722BBFE94
:1002080002E32289828A83E49322BB010689828AD7
:1002180083F0225002F722BBFE01F322EF8DF0A4F7
:10022800A8F0CF8CF0A428CE8DF0A42EFE22BC001E
:100238000BBE0029EF8DF084FFADF022E4CCF875F9
:10024800F008EF2FFFEE33FEEC33FCEE9DEC984008
:1002580005FCEE9DFE0FD5F0E9E4CEFD22EDF8F5A4
:10026800F0EE8420D21CFEADF075F008EF2FFFED04
:1002780033FD4007985006D5F0F222C398FD0FD5FC
:10028800F0EA22C5F0F8A3E028F0C5F0F8E58215F9
:100298008270021583E038F022A42582F582E5F009
:1002A8003583F58322E0FBA3E0FAA3E0F922F8E026
:1002B800FBA3A3E0F925F0F0E5821582700215830F
:1002C800E0FA38F022EBF0A3EAF0A3E9F022E49098
:1002D80080C3F09080C3E0C3940440030204A1E407
:1002E8009080C5F09080C4F09080C4E0C3940F4023
:1002F80003020484E0FF9080C3E075F00FA424009B
:10030800F582E43480F583E5822FF582E43583F5C0
:1003180083E070589080C3E075F01EA4243CF582F9
:10032800E43480F583C083C0829080C4E0D082D05A
:100338008375F0021202A1E0FEA3E0FF9080BFE007
:10034800FCA3E0C39FEC9E40239080C4E0FF908014
:10035800C3E075F00FA42400F582E43480F583E54A
:10036800822FF582E43583F5837401F09080C4E030
:10037800FF9080C3E075F00FA42400F582E4348078
:10038800F583E5822FF582E43583F583E064016027
:100398000302047B9080C3E075F01EA4243CF58220
:1003A800E43480F583C083C0829080C4E0D082D0DA
:1003B8008375F0021202A1E0FEA3E0FF9080BFE087
:1003C800FCA3E0C39FFFEC9E9080C6F0A3EFF090E3
:1003D80080C6E0FEA3E0FF7C007D0A120236EF240F
:1003E80014FFE43EA3F0A3EFF09080C8E0FEA3E082
:1003F800C394DCEE940040389080C4E0FF9080C342
:10040800E075F00FA42400F582E43480F583E582DA
:100418002FF582E43583F5837402F09080C3E025DC
:10042800E024B7F582E43480F583E4F0A3F0802279
:100438009080C8E0FEA3E0FF9080C3E025E024B7E9
:10044800F582E43480F583EEF0A3EFF09080C57474
:1004580001F09080C3E0FF120ACC9080C3E025E051
:1004680024B7F582E43480F583E0FCA3E0FD120BA9
:100478000980099080C4E004F00202F09080C5E091
:10048800700E9080C3E0FF120ACCE4FDFC120B0949
:100498009080C3E004F00202DB229080C77408F069
:1004A800A374DAF0E49080C5F09080C5E0C39404AA
:1004B80040030205F1E0FF7E007C017DF412022476
:1004C8009080CBEEF0A3EFF0E49080C6F09080C669
:1004D800E0C3940F40030205E8E0FF7E00A3E0FCC0
:1004E800A3E0FD120224EF2420FFEE3403FE9080E7
:1004F800CBE0FCA3E02FFBEE3CFA9080C6E0FF7E49
:10050800007C007D031202367E007F96120224EFE3
:100518002BFBEE3AFAE075F025A4FFAEF07C007DE7
:10052800C8120236ED2BFFEC3A9080C9F0A3EFF029
:100538009080C9E0FEA3E0D3940CEE947B40229017
:1005480080C6E0FFE49FFFE49400FE7C007D641217
:100558000224C374309FFF74759E9080C9F0A3EF86
:10056800F09080C9E0FEA3E0C39464EE94005015B7
:100578009080C6E075F050A42464FFE435F09080C4
:10058800C9F0A3EFF09080C9E0FEA3E0FF9080C51A
:10059800E075F01EA4243CF582E43480F583C08322
:1005A800C0829080C6E0D082D08375F0021202A18A
:1005B800EEF0A3EFF09080C6E0FF9080C5E075F004
:1005C8000FA42400F582E43480F583E5822FF582B8
:1005D800E43583F583E4F09080C6E004F00204D5A6
:1005E8009080C5E004F00204B122E49080C3F0904A
:1005F80080C3E0C39404400302072EE0FF1200C347
:10060800120C1E9080C5EEF0A3EFF09080C5E0FEBE
:10061800A3E04E7003020725E49080C7F09080C4E1
:10062800F09080C4E0C3940F4003020707E0FF90F6
:1006380080C3E075F00FA42400F582E43480F583CC
:10064800E5822FF582E43583F583E06401600302D7
:1006580006FE9080C3E025E024B7F582E43480F5F7
:1006680083E0FEA3E0C394C8EE940040769080C374
:10067800E025E024B7F582E43480F583E0FEA3E0CA
:10068800D394EBEE9400505B9080B4E475F00112C3
:10069800028B9080C4E0FF9080C3E075F00FA42423
:1006A80000F582E43480F583E5822FF582E4358312
:1006B800F5837402F09080C3E025E024B7F582E466
:1006C8003480F583E4F0A3F09080C3E0FF120ACCF5
:1006D800E4FDFC120B097D017C007F037E20120BD8
:1006E80009800B7D037C007F037E20120B0990801C
:1006F800C77401F080099080C4E004F002062990D4
:1007080080C7E0700A7D03FC7F037E20120B0990EE
:1007180080C3E0FF1200C3E4FDFC120B099080C304
:10072800E004F00205F7229080D0EEF0A3EFF0A3EA
:100738001202CD9080D0E0A3E054019080D7F090D1
:1007480080D0E0FEA3E0FFEEC313FEEF13FF90801E
:10075800D0EEF0A3EFF0E4F5F19080D0E0FEA3E056
:10076800EEF5F29080D0E0A3E0F5F375F40175F8AA
:100778008F30FCFD9080D7E0603C9080D5E0FEA3F0
:10078800E0D39400EE9400402D75F8839080D2E475
:1007980075F0011202B61201F9F5FC9080D2E475E9
:1007A800F0011202B61201F9F5FDD2FE9080D5745F
:1007B800FFF5F012028B75F88F9080D5E0FEA3E06C
:1007C800C39402EE9400404B9080D2E475F001127D
:1007D80002B61201F9F5FA9080D2E475F00112021E
:1007E800B61201F9F5FB9080D2E475F0011202B659
:1007F8001201F9F5FC9080D2E475F0011202B612EC
:1008080001F9F5FDD2FE9080D574FF75F0FE120255
:100818008B80A69080D5E0FEA3E04E602375F88C0F
:100828009080D2E475F0011202B61201F9F5FA903F
:1008380080D2E475F0011202B61201F9F5FBD2FE7E
:10084800E4F5F8229080CCEEF0A3EFF0A31202CDED
:100858009080CCE0A3E054019080D3F09080CCE06D
:10086800FEA3E0FFEEC313FEEF13FF9080CCEEF083
:10087800A3EFF0E4F5F19080CCE0FEA3E0EEF5F212
:100888009080CCE0A3E0F5F375F40175F8AF30FC87
:10089800FD9080D1E0FEA3E0D39400EE94005003D5
:1008A800020939D2FE20FEFD9080D3E0703D908091
:1008B800D1E0FEA3E0D39400EE9400402E9080CEC9
:1008C800E475F0011202B6E5FA1202129080CEE445
:1008D80075F0011202B6E5FB1202129080D3740182
:1008E800F09080D174FFF5F012028B9080D3E0B4C1
:1008F800019F9080D1E0FEA3E0D39400EE940040E5
:10090800909080CEE475F0011202B6E5FC12021256
:100918009080CEE475F0011202B6E5FD120212E4F1
:100928009080D3F09080D174FFF5F012028B02080A
:1009380099E4F5F822787FE4F6D8FD758107020975
:1009480084020B7EE493A3F8E493A34003F68001AA
:10095800F208DFF48029E493A3F85407240CC8C3F1
:1009680033C4540F4420C8834004F456800146F62B
:10097800DFE4800B0102040810204080900D28E479
:100988007E019360BCA3FF543F30E509541FFEE489
:1009980093A360010ECF54C025E060A840B8E4934B
:1009A800A3FAE493A3F8E493A3C8C582C8CAC5838D
:1009B800CAF0A3C8C582C8CAC583CADFE9DEE78012
:1009C800BE9080C17402F0FD7C007F007E20120B77
:1009D80009120BEC9080C3EFF0120D3C9080C3E03D
:1009E80060067C007D0180047C007D02120B0912E8
:1009F8000D5D7F2C7E01120D009080B6E0B40513CA
:100A08009080C3E060047F0680027F079080C4EF77
:100A1800F080119080C3E060047F0980027F0A9013
:100A280080C4EFF09080C4E0FF120D4E229080C485
:100A3800EFF0E09080B6F0E49080BFF0A3F09080F3
:100A4800B4F0A3F09080C104F0120CEB12002E1247
:100A580004A2120C987D017C007F007E20120B09F5
:100A6800E4FDFC7F017E20120B09E4FDFC7F027E81
:100A780020120B09E4FDFC7F037E20120B09E4FF22
:100A8800120D1422120CBA9080C3EFF09080C2E0CD
:100A9800FF9080C3E06F602B9080C3E09080C2F02D
:100AA8009080C364056004E0B408099080C3E0FF47
:100AB800120A35229080C1E0B40108E4F0120D5DFD
:100AC800120CEB229080CAEFF09080B6E0B4050BD0
:100AD8009080CB7421F0A3E4F080099080CB74223D
:100AE800F0A3E4F09080CAE075F010A4FFA3E0FC46
:100AF800A3E02404FDEC3450FCED2FFFEC35F0FEB0
:100B0800229080CAEEF0A3EFF0A3ECF0A3EDF090F2
:100B180080CCE0FEA3E0EEA3F09080CCA3E0908030
:100B2800CFF09080CAE0FEA3E0FF7B017A8079CE07
:100B38009080D5E4F0A37402F012072F229080C1B0
:100B4800E0B401319080BFE475F00112028B90800F
:100B5800BFE0FCA3E0FD7F017E20120B091202D644
:100B68001205F29080BFE0FEA3E0C394D0EE948417
:100B780040031209C922120D68E49080BFF0A3F067
:100B88009080B4F0A3F09080C1F0A374FFF090803F
:100B9800B67405F0120CEB7F327E00120D00120ABB
:100BA8008C120B457F017E00120D0080F122C0E0FF
:100BB800C0F0C083C082C0D075D000C000C006C2DB
:100BC800C69080D8E0FEA3E04E600A9080D874FFFB
:100BD800F5F012028BD006D000D0D0D082D083D0CE
:100BE800F0D0E0329080B4E0FEA3E0FF7C007D64AA
:100BF8001202247D3C1202369080C5EEF0A3EFF07D
:100C08009080C5E0FEA3E0C3943CEE940040047FCE
:100C18000180027F00229080C8EEF0A3EFF0908060
:100C2800C8E0FEA3E0FF7B017A8079CA9080D1E416
:100C3800F0A37402F012084C9080CAE0FEA3E0FD15
:100C4800EEEDFF22C2AFC2D3C2D4E4F58E75C870F0
:100C5800F593759401759502F5C9F5F875F901F5DF
:100C6800A8F5B8F59AF5A9F5B953C9FD229080C73A
:100C7800EEF0A3EFF09080C7E0FEA3E0FF9080D8ED
:100C8800EEF0A3EFF09080D8E0FEA3E04E70F622DD
:100C9800E49080C5F09080C5E0C394045013E0FF51
:100CA8001200C3E4FDFC120B099080C5E004F0803B
:100CB800E4227B017A8079C49080D1E4F0A304F027
:100CC8007F147E0012084C9080C4E0FF2275C87023
:100CD800E4F5CDF5CC75CBBC75CACD43A820D2C8F8
:100CE800D2AF22E4FDFC7F047E20120B09E4FDFC58
:100CF8007F057E20120B09229080C5EEF0A3EFF04D
:100D08009080C5E0FEA3E0FF120C75229080C5EF2D
:100D1800F0E02401FDE433FC7F0E7E20120B092253
:100D28004280D800004480DAC1DFCFDF4480DEB6DD
:100D3800FECFDF009080B6E0B405067E207F0480F9
:100D4800047E207F05229080C5EFF0E0FD7F847E41
:100D58000012000322E4FDFC7F0E7E20120B092204
:070D6800120C4C120CD52205
:00000001FF
